:020000040800F2
:10000000008001204D1E00089F190008AD1900084E
:10001000B3190008B9190008BF1900080000000052
:10002000000000000000000000000000C5190008EA
:10003000D319000800000000E1190008EF190008BA
:10004000951E0008951E0008951E0008951E0008C4
:10005000951E0008951E0008951E0008951E0008B4
:10006000951E0008951E0008951E0008951E0008A4
:10007000951E0008951E0008951E0008951E000894
:10008000951E0008951E0008951E0008951E000884
:10009000951E0008951E0008951E0008951E000874
:1000A000951E0008951E0008951E0008951E000864
:1000B000FB190008211A0008951E0008951E00086B
:1000C000951E0008951E0008951E0008951E000844
:1000D000951E0008951E0008491A0008951E000884
:1000E000951E0008951E0008951E0008951E000824
:1000F000951E0008951E0008951E0008951E000814
:10010000951E0008951E0008951E0008951E000803
:10011000951E0008951E0008951E0008951E0008F3
:10012000951E0008951E0008951E0008951E0008E3
:10013000951E0008951E0008951E0008951E0008D3
:1001400000000000000000000000000000000000AF
:10015000951E0008951E0008951E0008951E0008B3
:10016000951E0008951E0008951E0008951E0008A3
:10017000551A0008951E0008951E0008951E0008D7
:04018000951E0008C0
:1001900010B5054C237833B9044B13B10448AFF3C1
:1001A00000800123237010BD8001002000000000AA
:1001B000645C000808B5034B1BB103490348AFF367
:1001C000008008BD0000000084010020645C00087D
:1001D00001F0FF01102A2BDB10F0070F08D010F8F8
:1001E000013B013A8B422DD010F0070F42B3F6D1FC
:1001F000F0B441EA012141EA014122F007047FF015
:1002000000070023F0E80256083C85EA010586EA6B
:10021000010685FA47F5A3FA87F586FA47F6A5FAA7
:1002200087F68EB9EED1F0BC01F0FF0102F00702B3
:1002300032B110F8013B013A83EA010313B1F8D15E
:100240000020704701387047002D06BF354603383F
:10025000073815F0010F07D1013015F4807F02BF78
:10026000013015F4C03F0130F0BC0138704700BFC9
:1002700070B50D4D0D4C641BA4100026A64209D18B
:100280000B4D0C4C05F0EEFC641BA4100026A6429E
:1002900005D170BD55F8043B98470136EEE755F897
:1002A000043B98470136F2E7746400087464000860
:1002B000746400087864000802440346934200D145
:1002C000704703F8011BF9E780B400AF1E4BD3F869
:1002D00088301D4A43F47003C2F888301B4A136803
:1002E00043F00103136000BF184B1B68C3F34003C6
:1002F000DBB2012BF8D1154A53686FF30103536049
:1003000000BF124B5B68C3F38103DBB2002BF8D153
:100310000E4B1B680D4A23F0867323F48033136061
:100320000A4B00225A60094B00221A63074B4FF414
:100330001F029A60044B4FF000629A6000BFBD46F6
:100340005DF8047B704700BF00ED00E00010024044
:1003500080B588B000AF0023BB610023FB610023A0
:100360007B6100233B610023FB600023BB6000F046
:1003700067FA0346FB71FB79022B20D0022B69DC64
:10038000002B02D0012B16D064E03F4B5B6DC3F312
:100390004023DBB2002B0AD03B4B1B6BC3F3406303
:1003A000DBB2002B03D0394B394A1A6056E0374B89
:1003B000384A1A6052E0354B364A1A604EE0324BEA
:1003C0005B68C3F30043DBB23B612F4B5B68C3F355
:1003D0008343DBB2FB612C4B5B68C3F34173DBB23D
:1003E0007B617B69002B02D1FB690F2B06D17B69F6
:1003F0001A01FB6913440133FB6102E0FB6902331C
:10040000FB613B69002B06D1FB69234A02FB03F326
:100410001E4A136022E01C4B5B68C3F34043DBB20F
:10042000002B10D0184B5B6DC3F30133DBB2BB6103
:10043000BB690233174AB2FBF3F3FA6902FB03F319
:10044000124A13600AE0FB69124A02FB03F30F4AE7
:10045000136003E00D4B0F4A1A6000BF0A4B5B6844
:10046000C3F30313DBB2FB600C4AFB6813441B7835
:10047000BB60064B1A68BB6822FA03F3034A136099
:1004800000BF2037BD4680BD001002406400002040
:10049000006CDC0200127A0000093D00AC6000082C
:1004A00080B400AF184A136843F00103136000BF23
:1004B000154B1B68C3F34003DBB2012BF8D1124A82
:1004C00053686FF30103536000BF0F4B5B68C3F3C6
:1004D0008103DBB2002BF8D10B4B1B680A4A23F0D7
:1004E000867323F480331360074B00225A60064B57
:1004F00000221A63044B4FF41F029A6000BFBD46EE
:100500005DF8047B704700BF0010024080B485B0E6
:1005100000AF78600023FB737B681B0C03F1804302
:1005200003F504331A687B6803F01F03012101FA05
:1005300003F31A407B6803F01F03012101FA03F360
:100540009A4202D00023FB7301E00123FB73FB7B83
:1005500018461437BD465DF8047B704780B582B0FD
:1005600000AF00237B600023FB7002E07B68013357
:100570007B601120FFF7CAFF0346012B03D07B6885
:10058000B3F5405FF2D31120FFF7C0FF0346012B04
:1005900002D00023FB7001E00123FB70FB781846BA
:1005A0000837BD4680BD80B483B000AF78600B468D
:1005B000FB70FB78012B16D17B681B0C03F1804389
:1005C00003F5043319687B6803F01F0301229A4086
:1005D0007B681B0C03F1804303F50433184641EAA2
:1005E0000203036017E07B681B0C03F1804303F5F3
:1005F000043319687B6803F01F03012202FA03F336
:10060000DA437B681B0C03F1804303F5043318467F
:1006100001EA0203036000BF0C37BD465DF8047BAE
:100620007047000080B483B000AF03460A46FB71F8
:100630001346BB71FB79042B3ED801A252F823F07C
:1006400055060008690600087D06000891060008A6
:10065000A50600081C4ABB7903F00103D9B2136850
:1006600061F30003136028E0174ABB7903F001032C
:10067000D9B2136861F3104313601EE0124ABB79CC
:1006800003F00103D9B2136861F31863136014E037
:100690000D4ABB7903F00103D9B2136A61F3000379
:1006A00013620AE0084ABB7903F00103D9B2536A26
:1006B00061F30003536200E000BF00BF0C37BD468A
:1006C0005DF8047B704700BF0010024080B483B027
:1006D00000AF0346FB71074AFB7903F00F03D9B261
:1006E000536861F30713536000BF0C37BD465DF8D4
:1006F000047B70470010024080B483B000AF034613
:10070000FB71074AFB7903F00703D9B2536861F321
:100710000A23536000BF0C37BD465DF8047B704769
:100720000010024080B483B000AF0346FB71074A5B
:10073000FB7903F00703D9B2536861F3CD2353600B
:1007400000BF0C37BD465DF8047B704700100240C7
:1007500080B483B000AF0346FB710B46BB711346F8
:100760007B71FB79002B0AD11F4A53686FF310434A
:1007700053601D4A136B43F00073136312E01A4A6F
:10078000536843F480335360FB79012B05D1164A3B
:1007900053686FF35143536004E0134A536843F4C2
:1007A00000335360104ABB7903F00F03D9B253688A
:1007B00061F395435360BB791B110B4A03F00303AC
:1007C000D9B2536861F35E735360074A7B7903F0D3
:1007D0000103D9B2536861F3DF73536000BF0C3774
:1007E000BD465DF8047B70470010024080B483B0C2
:1007F00000AF0346FB71114AFB7903F00303D9B242
:10080000536861F30103536000BF00BF00BF00BF26
:1008100000BF00BF00BF00BF00BF00BF00BF00BFE0
:1008200000BF00BF00BF00BF00BF00BF00BF00BFD0
:1008300000BF0C37BD465DF8047B704700100240D6
:1008400080B400AF044B5B68C3F38103DBB218468E
:10085000BD465DF8047B70470010024080B58AB049
:1008600000AF786000233B6200237B620023FB61C2
:100870000023BB6100237B6100233B61FFF7E0FFA6
:100880000346FB73FB7B022B20D0022B69DC002B81
:1008900002D0012B16D064E05D4B5B6DC3F34023A7
:1008A000DBB2002B0AD05A4B1B6BC3F34063DBB2A5
:1008B000002B03D07B68574A1A6056E07B68564A83
:1008C0001A6052E07B68544A1A604EE0504B5B68F5
:1008D000C3F30043DBB2BB614D4B5B68C3F383439F
:1008E000DBB27B624A4B5B68C3F34173DBB2FB61F3
:1008F000FB69002B02D17B6A0F2B06D1FB691A0121
:100900007B6A134401337B6202E07B6A02337B62C1
:10091000BB69002B06D17B6A404A03FB02F27B686D
:100920001A6022E03A4B5B68C3F34043DBB2002B12
:1009300010D0374B5B6DC3F30133DBB23B623B6AD4
:100940000233354AB2FBF3F37A6A03FB02F27B68A7
:100950001A600AE07B6A304A03FB02F27B681A6085
:1009600003E07B682C4A1A6000BF294B5B68C3F325
:100970000313DBB27B612A4A7B6913441B783B611A
:100980007B681A683B69DA407B685A60204B5B6879
:10099000C3F30223DBB27B61224A7B6913441B78D9
:1009A0003B617B685A683B69DA407B68DA60184BC8
:1009B0005B68C3F3C223DBB27B611B4A7B691344D0
:1009C0001B783B617B685A683B69DA407B689A60B8
:1009D0000F4B5B68C3F30073DBB27B617B699B00E9
:1009E0000B4A5268C2F38132D2B213437B610F4A81
:1009F0007B6913441B783B617B689A683B69B2FB57
:100A0000F3F27B681A6100BF2837BD4680BD00BF86
:100A100000100240006CDC0200127A0000093D0068
:100A2000BC600008CC600008D4600008DC600008EE
:100A300080B483B000AF0346FB71FB79012B05D175
:100A4000084A536D43F03003536504E0054A536D83
:100A50006FF30513536500BF0C37BD465DF8047B8B
:100A6000704700BF0010024080B483B000AF7860D0
:100A70000B46FB70FB7803F00103D9B27A68136868
:100A800061F30003136000BF0C37BD465DF8047BC3
:100A9000704780B485B000AFF860B9607A60FB68D9
:100AA000BA68DA62FB687A689A62FA68536943F056
:100AB0000103536100BF1437BD465DF8047B7047E6
:100AC00080B483B000AF78600B46FB70FB7803F016
:100AD0000303D9B27A68136861F30923136000BF76
:100AE0000C37BD465DF8047B704780B483B000AF1F
:100AF00078600B46FB70FB7803F00703D9B27A6885
:100B0000136861F30613136000BF0C37BD465DF830
:100B1000047B704780B483B000AF786039607B6835
:100B20003A685A6200BF0C37BD465DF8047B7047D7
:100B300080B483B000AF78600B46FB70FB7803F0A5
:100B40000103D9B27A68136861F3C713136000BF59
:100B50000C37BD465DF8047B704780B483B000AFAE
:100B600078600B46FB70FB7803F00703D9B27A6814
:100B7000536861F30613536000BF0C37BD465DF840
:100B8000047B704780B483B000AF78600B46FB7085
:100B9000FB7803F00103D9B27A68936861F3C71355
:100BA000936000BF0C37BD465DF8047B704780B48E
:100BB00085B000AFF860B9601346FB71FB79012B7B
:100BC00006D1FB68DA68BB681A43FB68DA6009E0A3
:100BD000FB79002B06D1FB68DA68BB68DB431A405F
:100BE000FB68DA6000BF1437BD465DF8047B7047D0
:100BF00080B485B000AF786039600023FB737B68F8
:100C00001A693B681340002B02D00123FB7301E0FB
:100C10000023FB73FB7B18461437BD465DF8047B4D
:100C2000704780B483B000AF786039603B68DA43C6
:100C30007B681A6100BF0C37BD465DF8047B7047C6
:100C400080B485B000AF786039603B681B683B8139
:100C50003B689B79032B02D100237B8130E03B680A
:100C60009B79002B15D13B685B799BB203F00F0396
:100C70007B813B685B79182B03D13A897B681A61C9
:100C80001EE03B685B79282B1AD13A897B685A6150
:100C900016E03B689B791BB203F008031AB23B686D
:100CA0001B791BB203F004031BB213431AB23B6857
:100CB000DB791BB203F003031BB213431BB27B812E
:100CC0003B89DBB2002B25D00023FB601FE03A8973
:100CD000FB6842FA03F303F00103002B14D07B6896
:100CE0001B68FA6892000F2101FA02F2D2431A40FF
:100CF0007B681A607B681B687989FA68920001FA40
:100D000002F21A437B681A60FB680133FB60FB68E0
:100D1000072BDCD93B89FF2B28D93B891B0A3B8158
:100D20000023FB601FE03A89FB6842FA03F303F0FB
:100D30000103002B14D07B685B68FA6892000F21D6
:100D400001FA02F2D2431A407B685A607B685B6802
:100D50007989FA68920001FA02F21A437B685A60B4
:100D6000FB680133FB60FB68072BDCD900BF14373D
:100D7000BD465DF8047B704780B483B000AF7860F7
:100D80007B684FF6FF721A607B6800229A717B685D
:100D900000221A717B6804225A717B680122DA7181
:100DA00000BF0C37BD465DF8047B704780B483B04C
:100DB00000AF78600B467B807A887B681A6100BF41
:100DC0000C37BD465DF8047B704780B483B000AF3C
:100DD00078600B467B807A887B685A6100BF0C374D
:100DE000BD465DF8047B704780B487B000AF786083
:100DF0000B46FB707B681B0E03F1804303F58033C9
:100E00007B617B681B0CFB747B681B0ABB747B6873
:100E10007B74BB7CC3F12002FB7CD31A4FF0FF3202
:100E200002FA03F3FB60BB7CC3F12002FB7CD31A04
:100E3000FA6822FA03F3FB60FB7CFA6822FA03F3F8
:100E4000FB60FB7CFA6802FA03F3FB607B691968BC
:100E5000FB68DA437B690A401A60FB78002B09D0F3
:100E60007B691A68797CFB7C01FA03F319467B697C
:100E70000A431A6000BF1C37BD465DF8047B70470B
:100E800080B58CB000AFF860B96011461A460B46C9
:100E9000FB711346BB7107F114031846FFF7DEFC24
:100EA000FB682A4A93420BD0FB68294A934207D039
:100EB000FB68284A934203D0FB68274A934202D139
:100EC000FB69FB6201E03B6AFB62FA6A13469B0026
:100ED00013445B001A46BB68B2FBF3F3BB62B96A0A
:100EE0001E4BA3FB0123DA0813469B0013445B004F
:100EF000CA1A042A06D8BB6A184AA2FB0323DB08D5
:100F0000BB6206E0BB6A154AA2FB0323DB08013380
:100F1000BB62BB6A99B2FA68936861F30F0393608E
:100F2000FB7903F00103D9B2FA68D36861F30C339B
:100F3000D360BB7903F00303D9B2FA68136961F394
:100F40000D33136100BF3037BD4680BD003801400E
:100F5000006001400064014000680140CDCCCCCC71
:100F600080B483B000AF78600B46FB70FB78002B39
:100F70000AD17A68D3686FF34923D3607A68D3685B
:100F80006FF38A23D3601AE0FB78012B0AD17A68C9
:100F9000D3686FF34923D3607A68D36843F48063DE
:100FA000D3600CE0FB78022B09D17A68D36843F454
:100FB0000073D3607A68D36843F48063D36000BF62
:100FC0000C37BD465DF8047B704780B483B000AF3A
:100FD00078600B46FB70FB7803F00103D9B27A68A6
:100FE000D36861F34D33D36000BF0C37BD465DF865
:100FF000047B704780B483B000AF78600B46FB7011
:10100000FB7803F00103D9B27A68D36861F3C303B4
:10101000D36000BF0C37BD465DF8047B704780B4D9
:1010200083B000AF78600B46FB70FB7803F00103E0
:10103000D9B27A68D36861F38203D36000BF0C37FA
:10104000BD465DF8047B704780B485B000AFF860A2
:10105000B9601346FB71FB79012B11D1BB681A0CE7
:10106000FB6813441A68BB6803F01F03012101FAEF
:1010700003F3B968080CF968014413430B6011E0ED
:10108000BB681A0CFB6813441A68BB6803F01F03A3
:10109000012101FA03F3DB43B968080CF968014444
:1010A00013400B6000BF1437BD465DF8047B7047EA
:1010B00080B483B000AF78600B467B807B88C3F33D
:1010C00008027B685A6000BF0C37BD465DF8047BA0
:1010D000704780B483B000AF78607B685B689BB278
:1010E00018460C37BD465DF8047B704780B483B06A
:1010F00000AF78600B46FB70FB78002B0AD17A6852
:1011000053696FF3082353617A6853696FF3492376
:10111000536128E0FB78012B0AD17A68536943F4C4
:10112000807353617A6853696FF3492353611AE0FE
:10113000FB78022B0AD17A6853696FF30823536155
:101140007A68536943F4007353610CE0FB78032B16
:1011500009D17A68536943F4807353617A6853699B
:1011600043F40073536100BF0C37BD465DF8047B48
:10117000704780B483B000AF786039607B681A68CC
:101180003B681340002B01D0012300E000231846E8
:101190000C37BD465DF8047B7047000080B485B015
:1011A00000AF78607B6803F00703FB600C4BDB68E3
:1011B000BB60BA684FF6FF031340BB60FB681A02BE
:1011C000BB68134343F0BF6343F40033BB60044A7E
:1011D000BB68D36000BF1437BD465DF8047B704721
:1011E00000ED00E080B400AF044BDB681B0A03F0A5
:1011F00007031846BD465DF8047B704700ED00E02C
:1012000080B483B000AF0346FB7197F90730002B21
:101210000BDBFB7903F01F02074997F907305B09E5
:10122000012000FA02F241F8232000BF0C37BD462E
:101230005DF8047B704700BF00E100E080B483B03C
:1012400000AF03463960FB7197F90730002B0ADBCA
:101250003B68DAB20C4997F907301201D2B20B445D
:1012600083F800230AE03B68DAB20849FB7903F00F
:101270000F03043B1201D2B20B441A7600BF0C37A5
:10128000BD465DF8047B704700E100E000ED00E042
:1012900080B489B000AFF860B9607A60FB6803F091
:1012A0000703FB61FB69C3F10703042B28BF042379
:1012B000BB61FB690433062B02D9FB69033B00E0E9
:1012C00000237B614FF0FF32BB6902FA03F3DA437C
:1012D000BB681A407B699A404FF0FF317B6901FA85
:1012E00003F3D9437B680B40134318462437BD46AC
:1012F0005DF8047B704780B586B000AF0346B960E7
:101300007A60FB7300237B61FFF76CFF03467A680A
:10131000B9681846FFF7BCFF786197F90F30796913
:101320001846FFF78BFF97F90F301846FFF768FF55
:1013300000BF1837BD4680BD80B582B000AF034600
:10134000FB71FB791846FFF729FF00BF0837BD4640
:1013500080BD000080B483B000AF0346FB71FB7911
:10136000042B06D1094B1B68084A43F004031360A1
:1013700005E0064B1B68054A23F00403136000BF19
:101380000C37BD465DF8047B704700BF10E000E0FD
:1013900080B584B002AF00237B6000F0F9F900F063
:1013A00049FA00F0F1FB00F07DFA00F08FFB00F04D
:1013B0002DFD00F041FC00F093FC00F0DFFC00F09C
:1013C000EDFB00F015FC354803F0A2FE002300936E
:1013D0004FF4165301220121002001F0D7FF0346EC
:1013E000FB7000234FF496420021002000F054FDD2
:1013F0000346FB702A4803F08BFE00F0B7FD03465E
:10140000FB704FF4FA7000F045FB264803F080FEB5
:10141000FB78002B02D0244803F07AFEFB78002BE7
:1014200013D1224803F074FE02F02CF80346FB703F
:10143000FB78002B03D11E4803F06AFE0AE0FB781C
:1014400019461C4803F0DEFD04E0FB7819461A48F3
:1014500003F0D8FDFB78002B03D0184803F058FEAA
:1014600017E0174803F054FE02F028F87B680133B8
:101470007B607B68134A9342F6D900F093FD4FF4EA
:101480007A7302220121012001F07BFB00237B60A3
:10149000EAE700BF18460837BD4680BD7C5C0008FF
:1014A000945C0008A85C0008C05C0008D85C0008D8
:1014B000E85C0008FC5C0008245D0008485D00084A
:1014C0005C5D0008A086010080B485B000AF786044
:1014D0000B467B8013463B800023FB73FB7B184647
:1014E0001437BD465DF8047B704780B487B000AF09
:1014F000F860084611461A4603467B810B463B813D
:101500001346FB710023FB75FB7D18461C37BD4657
:101510005DF8047B704780B487B000AFF860084680
:1015200011461A4603467B810B463B811346FB71ED
:101530000023FB75FB7D18461C37BD465DF8047B18
:10154000704780B485B000AF78600B467B8013464F
:101550003B800023FB73FB7B18461437BD465DF8C8
:10156000047B704780B400AF01231846BD465DF888
:10157000047B704780B582B000AF7860396003F0BB
:101580002DFA034616221A604FF0FF33184608372B
:10159000BD4680BD80B582B000AF78604FF0FF31AE
:1015A0007868FFF7E7FFFEE780B586B000AFF86028
:1015B000B9607A6000237B610AE0AFF300800146E6
:1015C000BB685A1CBA60CAB21A707B6901337B616E
:1015D0007A697B689A42F0DB7B6818461837BD460B
:1015E00080BD80B483B000AF78604FF0FF33184601
:1015F0000C37BD465DF8047B704780B483B000AF04
:10160000786039603B684FF400525A6000231846F6
:101610000C37BD465DF8047B704780B483B000AFE3
:101620007860012318460C37BD465DF8047B70478F
:1016300080B485B000AFF860B9607A6000231846C6
:101640001437BD465DF8047B7047000080B586B056
:1016500000AF7860144A154BD31A7B617B693B61FC
:10166000134B1B68002B02D1114B124A1A60104B0E
:101670001A687B6813443A699A4207D203F0AEF9BC
:1016800003460C221A604FF0FF3309E0084B1B6839
:10169000FB60074B1A687B681344054A1360FB68BC
:1016A00018461837BD4680BD0080012000040000A8
:1016B0004C0200201006002080B400AF044BDB6811
:1016C0001B0A03F007031846BD465DF8047B70470C
:1016D00000ED00E080B483B000AF03463960FB71D9
:1016E00097F90730002B0ADB3B68DAB20C4997F90F
:1016F00007301201D2B20B4483F800230AE03B68A2
:10170000DAB20849FB7903F00F03043B1201D2B2AD
:101710000B441A7600BF0C37BD465DF8047B70475A
:1017200000E100E000ED00E080B489B000AFF860B7
:10173000B9607A60FB6803F00703FB61FB69C3F1E2
:101740000703042B28BF0423BB61FB690433062B6A
:1017500002D9FB69033B00E000237B614FF0FF32BD
:10176000BB6902FA03F3DA43BB681A407B699A400B
:101770004FF0FF317B6901FA03F3D9437B680B40DB
:10178000134318462437BD465DF8047B70470000BC
:1017900080B500AFFEF784FE01210420FEF742FF72
:1017A00000BF2348FEF7B2FE0346012BF9D1012109
:1017B0000120FEF737FF00BFFEF7D0FE0346002BE7
:1017C000FAD001210020FEF72DFF00BF0120FEF717
:1017D0009DFE0346012BF9D101221D210120FEF7B8
:1017E000B7FF01210220FEF71DFF00BF1920FEF701
:1017F0008DFE0346012BF9D10020FEF767FF042080
:10180000FEF790FF0520FEF777FF0120FFF710F9A4
:101810000220FEF7EBFF00BFFFF712F80346022B92
:10182000FAD10020FFF704F9FEF792FD00BF80BD5A
:101830000100240080B500AF01214FF4C010FEF775
:10184000B2FE01211148FEF7AEFE01211048FEF75D
:10185000AAFE01210F48FEF7A6FE01210E48FEF761
:10186000A2FE01214FF01810FEF79DFE01214FF45A
:10187000E010FEF798FE01210848FEF794FE0121D2
:101880000748FEF790FE00BF80BD00BF02001800B1
:1018900004001800050018000E00180001001C00CC
:1018A00011001C0080B500AF0320FFF745FDFFF7D6
:1018B00003FF0346002200211846FFF735FF0346C9
:1018C00019466FF00B00FFF705FFFFF7F5FE034623
:1018D000002200211846FFF727FF034619466FF044
:1018E0000A00FFF7F7FEFFF7E7FE0346002200219C
:1018F0001846FFF719FF034619466FF00900FFF776
:10190000E9FEFFF7D9FE0346002200211846FFF743
:101910000BFF034619466FF00400FFF7DBFEFFF7ED
:10192000CBFE0346002200211846FFF7FDFE0346CA
:1019300019466FF00300FFF7CDFEFFF7BDFE03462B
:1019400000220F211846FFF7EFFE034619466FF0FD
:101950000100FFF7BFFEFFF7AFFE034600220F2195
:101960001846FFF7E1FE034619464FF0FF30FFF738
:10197000B1FE002205211C20FFF7BDFC0022002142
:101980001D20FFF7B8FC002200212620FFF7B3FC42
:10199000002205214C20FFF7AEFC00BF80BD80B4C3
:1019A00000AF00BFBD465DF8047B704780B400AF58
:1019B000FEE780B400AFFEE780B400AFFEE780B47E
:1019C00000AFFEE780B400AF00BFBD465DF8047B0A
:1019D000704780B400AF00BFBD465DF8047B704720
:1019E00080B400AF00BFBD465DF8047B704780B592
:1019F00000AF00F093F800BF80BD80B500AF0121BB
:101A00004FF08040FFF7F4F80346002B06D0012189
:101A10004FF08040FFF705F902F012FE00BF80BDD5
:101A200080B500AF01210748FFF7E2F80346002B1D
:101A300005D001210348FFF7F4F801F0E5FB00BFF2
:101A400080BD00BF0004004080B500AF01F03EFB48
:101A500000BF80BD80B500AF02F07EFD00BF80BD3D
:101A600080B400AF044B1B680133034A136000BF0E
:101A7000BD465DF8047B70475002002080B400AF83
:101A8000034B1B681846BD465DF8047B704700BFDA
:101A90005002002080B584B000AF7860FFF7EEFF01
:101AA000F8607B68B3F1FF3F02D07B6801337B6055
:101AB00000BFFFF7E3FF0246FB68D31A7A689A4239
:101AC000F7D800BF00BF1037BD4680BD80B586B0D7
:101AD00000AF00237B613B461846FEF7BFFE7B68E4
:101AE0007B610420FFF736FC7B690A4AA2FB0323D3
:101AF0009B09094A013B5360074B00229A60064B41
:101B00001B68054A43F00303136000BF1837BD4646
:101B100080BD00BFD34D621010E000E080B500AF83
:101B2000FFF79EFF00BF80BD80B586B000AFF860B4
:101B3000B9607A6000237B611BE000BF80211148FF
:101B4000FFF717FB0346002BF8D0BB685A1CBA609E
:101B50001B789BB219460B48FFF7AAFA00BF402139
:101B60000848FFF706FB0346002BF8D07B690133DA
:101B70007B617A697B689A42DFDB7B68184618379D
:101B8000BD4680BD0038014080B500AF012102484C
:101B9000FFF72AF900BF80BD0203103080B500AF07
:101BA00000214FF08040FEF7A0FF00214FF0804061
:101BB000FEF786FF00214FF08040FEF7B9FFEF22CD
:101BC00040F69F714FF08040FEF763FF00214FF019
:101BD0008040FEF7D7FF00214FF08040FEF7BDFFA9
:101BE00001214FF08040FEF73FFF00BF80BD0000A5
:101BF00080B500AF00210F48FEF777FF00210D48A8
:101C0000FEF75EFF00210B48FEF792FFEF2240F641
:101C10009F710848FEF73DFF00210648FEF7B2FF1E
:101C200000210448FEF799FF01210248FEF71CFF3E
:101C300000BF80BD0004004080B582B000AF3B46CD
:101C40001846FFF799F8234B1B6898680023022277
:101C5000002103F065FA0223FB7100233B71082386
:101C6000BB714FF400733B6004237B713B46194604
:101C70001948FEF7E5FF0223FB7100233B710023A7
:101C8000BB714FF480633B6004237B713B46194674
:101C90001148FEF7D5FF002300224FF416510F48DC
:101CA000FFF7EEF801210D48FFF7A4F901210B48D9
:101CB000FFF7B5F900210948FFF752F9002107485D
:101CC000FFF714FA01210548FFF77FF900BF083735
:101CD000BD4680BD000000200008014000380140E2
:101CE00080B582B000AF3B461846FFF745F80123A8
:101CF000FB7100233B710823BB7120233B6004234D
:101D00007B713B4619461A48FEF79AFF0223FB7186
:101D100000233B710023BB7140233B6004237B7194
:101D20003B4619461248FEF78BFF01211148FFF789
:101D30005BF8002300224FF496410F48FFF7A0F80C
:101D400001210D48FFF756F901210B48FFF767F90C
:101D500000210948FFF704F900210748FFF7C6F9F9
:101D600001210548FFF731F900BF0837BD4680BDA6
:101D7000001401400104142C0044004080B582B0DE
:101D800000AF3B461846FEF7F7FF0123FB71002327
:101D90003B710823BB7140233B6004237B713B46AE
:101DA00019461848FEF74CFF0223FB7100233B71D4
:101DB0000023BB7180233B6004237B713B461946A3
:101DC0001048FEF73DFF002300224FF416510E4845
:101DD000FFF756F801210C48FFF70CF901210A48DA
:101DE000FFF71DF900210848FFF7BAF8002106485F
:101DF000FFF77CF901210448FFF7E7F800BF083737
:101E0000BD4680BD001001400060014080B582B039
:101E100000AF3B461846FEF7AFFF10210A48FEF719
:101E2000D4FF0123FB7100233B711023BB711023EE
:101E30003B6004237B713B4619460348FEF700FFD5
:101E400000BF0837BD4680BD00140140002103E0FB
:101E50000B4B5B58435004310A480B4B42189A42D3
:101E6000F6D30A4A02E0002342F8043B084B9A42A8
:101E7000F9D3FEF729FAFEF7FBF9FFF789FA704765
:101E80007C64000800000020800100208001002008
:101E90000C060020FEE7000080B584B000AF3A6079
:101EA0001A460346FB710B46BB7113467B71002338
:101EB000FB73FB79002B20D11C4B1D4A1A601D4B74
:101EC0001D4A1A601D4B1E4A1A601E4B1E4A1A609C
:101ED0001E4B00221A601E4B1E4A1A601E4B1F4AE0
:101EE0001A601F4B1F4A1A607A79BB793968184605
:101EF00000F0EEF90346FB7302E00223FB7300BF20
:101F0000FB7B002B0CD101F085F90346002B02D19D
:101F10000323FB7302E0144B01221A7001F0BCF999
:101F2000FB7B18461037BD4680BD00BF5C02002019
:101F300041230008600200206923000858020020A5
:101F4000192400086402002085230008680200208C
:101F50006C020020ED24000870020020D525000846
:101F600074020020AD2600086800002080B582B011
:101F700000AF0023FB71094B1B78012B06D1084BE6
:101F80001B689847054B00221A7001E00623FB717D
:101F9000FB7918460837BD4680BD00BF68000020A9
:101FA0005C020020F0B585B000AF0023FB719B4BB5
:101FB0001B78002B05D0994B1B78032B01D00623EF
:101FC00027E13B1D184601F049F90346012B40F07B
:101FD0001C81BB88013B0F2B00F2198101A252F832
:101FE00023F000BF252000082D2000080F22000844
:101FF0006B2000080F2200080F2200080F220008A3
:102000005F2100080F2200080F2200080F2200089D
:102010000F2200080F2200080F2200080F220008DC
:10202000892100087D4B03221A70F1E07C4B1B686C
:102030007C4A7D497D4898470346FB71FB79002B1C
:102040000CD100F00DF903461A46784B1B789A42E2
:1020500004D1042001F0ECF800BFD9E0012000F029
:1020600027F9102001F0E4F8D2E06F4B1B681A78D2
:102070006F4B1A706F4B01221A706D4B1B785BB25D
:10208000002B06DA684B1B6801331A78694B1A700B
:1020900055E00023FB604DE0674AFB6812F83330DF
:1020A000002B4BD0644AFB6812F83320604B1B783E
:1020B0009A423CD1012000F0C3F800F0C3FB034674
:1020C000002B22D000F0A2FB03461A46554B1A8083
:1020D0000123BB6015E0BB68DBB2184600F0CCF80A
:1020E000554AFB68DB0013445B684F4A12684D4950
:1020F0001046984703461A464E4B1A70BB68013388
:10210000BB60BB68102BE6DD0DE04B4AFB68DB00D3
:1021100013445B68444A1268424910469847034694
:102120001A46444B1A70002000F08AF807E0FB685A
:102130000133FB60FB680F2BAEDD00E000BF3D4BC1
:102140001B78002B06D0022000F0B2F8102001F01E
:102150006FF85DE001F0E7F801F0B0F858E03248C0
:1021600000F034FB354B1C6800F07AF803461E463D
:102170002D4B1D6800F04AFB03461A46294630469F
:10218000A0470346FB7143E000F086F80346BB71AD
:10219000254800F01BFBBB79022B24D0022B31DC3D
:1021A000002B02D0012B0FD02CE000F059F8034691
:1021B0001D461D4B1C6800F029FB03461A462146AC
:1021C000284601F082F81DE000F04AF803461D465B
:1021D000154B1C6800F01AFB03461A462146284698
:1021E00001F082F80EE000F03BF803461D460E4B6E
:1021F0001C6800F00BFB03461A462146284601F0F6
:1022000082F800BF01F05AF802E000BF00E000BF12
:10221000002318461437BD46F0BD00BF68000020FB
:1022200064020020800200207C020020780200204E
:1022300082020020830200206C000020580200204F
:1022400080B483B000AF0346FB71044AFB7913707E
:1022500000BF0C37BD465DF8047B70475502002077
:1022600080B400AF034B1B781846BD465DF8047B75
:10227000704700BF5402002080B483B000AF034613
:10228000FB71044AFB79137000BF0C37BD465DF843
:10229000047B70475402002080B400AF034B1B78CE
:1022A0001846BD465DF8047B704700BF560200200B
:1022B00080B483B000AF0346FB71044AFB7913700E
:1022C00000BF0C37BD465DF8047B70475602002006
:1022D00080B584B000AF03463960FB711346BB7113
:1022E0000023FB7372B600BFBB79F8790822396806
:1022F00000F09CFE0346012B02D00323FB7316E083
:102300003B68B3F5964F02D92323BB6005E03B68D9
:102310005B000A4AB2FBF3F3BB60BB689BB2184692
:1023200000F000FF0346012B01D00323FB7362B6CC
:1023300000BFFB7B18461037BD4680BDA07F17004D
:1023400080B500AF72B600BF064B00221A700021A4
:10235000012000F02BFE00F0F7FE62B600BF00BFC8
:1023600080BD00BF8502002080B500AF72B600BFFF
:102370000021002000F01AFE00F01CFF62B600BF32
:1023800000BF80BD80B586B000AFF860B9607A60EC
:102390000023FB7572B600BF194B1B889BB2FF2B45
:1023A00005D9184B184AA221184802F0F9FA144B23
:1023B0001B889BB2032B19D9114B1B889BB2194662
:1023C000134801F057FB0346002B0FD1104B1B782D
:1023D000DAB2FB681A700A4B1B889BB2033B9AB2B5
:1023E0007B681A80BB680B4A1A6001E00523FB7505
:1023F00062B600BFFB7D18461837BD4680BD00BFE2
:10240000920400207C5D0008E4600008A85D0008DC
:10241000880300208903002080B584B000AF034604
:102420003960FB711346BB800023FB73FB79102BD3
:1024300001D902234BE072B600BF274B1B78DBB2F9
:10244000012B3FD13B68013B244A1360244B0122FE
:102450001A80224B1B68FA791A70214B1B889AB29A
:10246000BB8813449AB21E4B1A801C4B1B681C4A33
:10247000128892B21146184601F0FCFA0346BB815D
:10248000174B1B889BB25A1C91B2154A11801A46F1
:10249000BB89D9B2134B9954BB891B0A99B2104B13
:1024A0001B889BB25A1C90B20D4A10801A46C9B2C2
:1024B0000C4B99540C4B01221A700121002000F0A2
:1024C00075FD01E00523FB7362B600BFFB7B184678
:1024D0001037BD4680BD00BF850200208C0400205F
:1024E00090040020880200208402002080B582B081
:1024F00000AF0023FB71304B1B78DBB2002B0AD0FE
:102500002D4B1B78DBB2022B05D02C4B2C4AED2136
:102510002C4802F045FABB1D184600F0AFFD2A4BCF
:102520001B78DBB2032B41D801A252F823F000BF85
:10253000412500084D2500087F2500084725000893
:1025400000F002FE32E000F0FFFD2FE000F032FE6E
:10255000194B00221A701D4B00221A801B4B1B883E
:102560009BB25A1C91B2194A11801A46B979184B7C
:102570009954154B02221A7000F0E6FD16E0134B39
:102580001B889BB2FF2B0BD8104B1B889BB25A1C8D
:1025900091B20E4A11801A46B9790D4B995402E056
:1025A000094B03221A7000F0CFFD00BFFB791846DB
:1025B0000837BD4680BD00BF84020020F45D0008DE
:1025C000F8600008A85D0008850200209204002041
:1025D0008803002080B582B000AF0023FB712A4B36
:1025E0001B78DBB2012B06D0284B294A40F22F1171
:1025F000284802F0D5F9284B1B78DBB2002B02D01B
:10260000012B05D03AE00021012000F0CFFC35E09D
:10261000224B1B889BB2002B13D0214B1B681B78CD
:10262000DBB2184600F016FD1D4B1B6801331C4A37
:1026300013601A4B1B889BB2013B9AB2174B1A804E
:102640001BE0184B1B78DBB2002B0CBF01230023CF
:10265000DBB21A46144B1A700021012000F0A6FCD0
:102660000D4B02221A70104B1B78DBB2012B02D1EA
:1026700000F092FD01E000F096FD00BFFB791846E6
:102680000837BD4680BD00BF850200203C5E0008C3
:1026900010610008A85D000884020020900400205A
:1026A0008C040020880200209404002080B582B0B1
:1026B00000AF0023FB713D4B1B78DBB2032B12D024
:1026C000032B19DC002B02D0022B06D014E00120D2
:1026D00000F0AEFD0346FB712AE0022000F0A8FDE9
:1026E0000346FB7124E00120FFF7E2FD102000F01B
:1026F0009FFD0346FB711BE02C4B1B78DBB2002BCC
:1027000015D02A4B1B78DBB2022B10D0274B1B783D
:10271000DBB2032B0BD0254B1B78DBB2012B06D091
:10272000234B244A40F27711234802F039F900BFC5
:102730001E4B01221A70214B1B78DBB2022B0DD1EC
:102740001F4B1B78DBB2002B19D10020FFF7B0FD27
:10275000102000F06DFD0346FB7110E0174B1B7855
:10276000DBB2022B0DD0154B1B78DBB2002B08D04F
:10277000144B104A40F28B110F4802F011F900BFC0
:1027800000E000BF0D4B00221A7000F013FD0E4B4D
:102790001B78DBB2022B04D1042000F049FD034674
:1027A000FB71FB7918460837BD4680BD85020020C5
:1027B0005C5E000828610008A85D00088402002013
:1027C00094040020EC5E00089504002080B483B0DF
:1027D00000AF78607B68044A1A6000BF0C37BD46C2
:1027E0005DF8047B704700BF8902002080B483B08D
:1027F00000AF0346FB80044AFB88138000BF0C3700
:10280000BD465DF8047B70478804002080B400AFAB
:10281000034B1B889BB21846BD465DF8047B70478E
:102820008804002080B483B000AF0346FB71044AE3
:10283000FB79137000BF0C37BD465DF8047B704711
:102840009504002080B400AF034B1B78DBB2184620
:10285000BD465DF8047B70479404002080B586B0C7
:1028600000AF786039600023BB75FFF7EBFF0346CC
:10287000002B02D00023BB7556E03B681B88012B60
:1028800050D907F10C031846FFF7A0FFFB6801338E
:102890001B789BB21B02BB82FB6802331B789AB287
:1028A000BB8A1343BB82BB8A0133BB82FB68033301
:1028B0001B789BB21B027B82FB6804331B789AB2A5
:1028C0007B8A13437B827B8A03F00703002B06D0AD
:1028D0007B8ADB089BB2DBB20133FB7503E07B8AAA
:1028E000DB089BB2FB757B8A002B18D07B68013319
:1028F0001B78FA7D9A4212D17B68981C7A8AB98A31
:102900000023FEF708FE03467B747B7C002B0BD074
:102910007B7C184601F078FD0346BB7504E0032379
:10292000BB7501E00323BB75BB7D18461837BD4658
:1029300080BD80B584B000AF786039600023FB7340
:102940003B681B88052B40D17B6801331B789BB209
:102950001B02BB817B6802331B789AB2BB8913438D
:10296000BB81BB890133BB817B6804331B78002B9F
:1029700028D17B6803331B78FF2B04D07B6803339B
:102980001B78002B1ED100237B727B6803331B78DE
:10299000FF2B02D101233B7201E000233B72B98976
:1029A00007F1080001230122FEF7B5FD0346FB7283
:1029B000FB7A002B0BD0FB7A184601F025FD03466D
:1029C000FB7304E00323FB7301E00323FB73FB7B36
:1029D00018461037BD4680BD80B586B000AF786020
:1029E00039600023BB753B681B88052B04D0FFF7BB
:1029F00029FF0346002B52D007F10C031846FFF7BE
:102A0000E5FE7B6801331B789BB21B02BB827B68AF
:102A100002331B789AB2BB8A1343BB82BB8A013351
:102A2000BB827B6803331B789BB21B027B827B6873
:102A300004331B789AB27B8A13437B82FB685B79F1
:102A40007B747B8A03F00703002B06D07B8ADB08AC
:102A50009BB2DBB20133FB7503E07B8ADB089BB2E0
:102A6000FB757B8A002B16D0FA7D7B7C9A4212D1B3
:102A7000FB68981D7A8AB98A0123FEF74CFD03464C
:102A80003B743B7C002B09D03B7C184601F0BCFC1E
:102A90000346BB7502E00323BB7502E001E003239C
:102AA000BB75BB7D18461837BD4680BD80B586B066
:102AB00000AF786039600023BB75FFF7C3FE0346A3
:102AC000002B02D00023BB7556E03B681B88012B0E
:102AD00050D907F10C031846FFF778FEFB68013365
:102AE0001B789BB21B02BB82FB6802331B789AB235
:102AF000BB8A1343BB82BB8A0133BB82FB680333AF
:102B00001B789BB21B027B82FB6804331B789AB252
:102B10007B8A13437B827B8A03F00703002B06D05A
:102B20007B8ADB089BB2DBB20133FB7503E07B8A57
:102B3000DB089BB2FB757B8A002B18D07B680133C6
:102B40001B78FA7D9A4212D17B6802337A8AB98A5D
:102B50001846FEF7F6FC03467B747B7C002B0BD0FB
:102B60007B7C184601F050FC0346BB7504E0032350
:102B7000BB7501E00323BB75BB7D18461837BD4606
:102B800080BD80B586B000AF7B600346FB730B460B
:102B9000BB8113467B810023FB75FB7B102B02D985
:102BA0000223FB7536E0786800F07DFB0346002BBE
:102BB00002D10523FB752DE007F110031846FFF73E
:102BC00005FEFB7B1846FFF757FB3B6906221A7090
:102BD000BB891B0A9AB23B690133D2B21A703B69B6
:102BE0000233BA89D2B21A707B891B0A9AB23B6946
:102BF0000333D2B21A703B6904337A89D2B21A70A5
:102C00000520FFF7F3FD082000F012FB00F092FB17
:102C10000346FB75FB7D18461837BD4680BD80B561
:102C200084B000AF786039600023FB733B681B8879
:102C3000052B22D17B6801331B789BB21B02BB8121
:102C40007B6802331B789AB2BB891343BB81BB8973
:102C50000133BB817B68D81CB98901230122FEF7AF
:102C600044FC0346FB72FB7A002B08D0FB7A184623
:102C700001F0CAFB0346FB7301E00323FB73FB7BFC
:102C800018461037BD4680BD80B586B000AF78606D
:102C900039600023FB753B681B88052B04D0FFF7C8
:102CA000D1FD0346002B3FD007F10C031846FFF778
:102CB0008DFDFB6801331B789BB21B02BB82FB6856
:102CC00002331B789AB2BB8A1343BB82BB8A01339F
:102CD000BB82FB6803331B789BB21B027B82FB68C1
:102CE00004331B789AB27B8A13437B82FB685B793F
:102CF0007B747A7C7B8A5B009A4212D1FB68981DB8
:102D00007A8AB98A0123FEF7F0FB03463B743B7CC9
:102D1000002B0CD03B7C184601F076FB0346FB757C
:102D200005E00323FB7502E00323FB7500E000BF11
:102D3000FB7D18461837BD4680BD80B586B000AF14
:102D4000786039600023FB75FFF77CFD0346002B9C
:102D500002D00023FB7547E03B681B88012B41D95B
:102D600007F10C031846FFF731FDFB6801331B78B0
:102D70009BB21B02BB82FB6802331B789AB2BB8AF0
:102D80001343BB82BB8A0133BB82FB6803331B78CE
:102D90009BB21B027B82FB6804331B789AB27B8A4E
:102DA00013437B827B8A002B19D07B8A5B007A6875
:102DB00001321278934212D17B68981C7A8AB98AC0
:102DC0000023FEF792FB03467B747B7C002B0BD029
:102DD0007B7C184601F018FB0346FB7504E00323D7
:102DE000FB7501E00323FB75FB7D18461837BD46D4
:102DF00080BD80B586B000AF786039600023FB7578
:102E0000FFF720FD0346002B02D00023FB756BE08B
:102E10003B681B88012B67D907F108031846FFF7A9
:102E2000D5FCBB6801331B789BB21B02BB82BB681D
:102E300002331B789AB2BB8A1343BB82BB8A01332D
:102E4000BB82BB6803331B789BB21B027B82BB68CF
:102E500004331B789AB27B8A13437B82BB680533A9
:102E60001B789BB21B023B82BB6806331B789AB26D
:102E70003B8A13433B823B8A01333B82BB68073367
:102E80001B789BB21B02FB81BB6808331B789AB28C
:102E9000FB891343FB817B8A5B007A6801321278DD
:102EA00093421FD1BB6803F10A00FA89398A0123D2
:102EB000FEF71BFB0346BB75BB7D002B08D17B686F
:102EC000981C7A8AB98A0023FEF70FFB0346BB756C
:102ED000BB7D002B08D0BB7D184601F095FA034658
:102EE000FB7501E00323FB75FB7D18461837BD46D3
:102EF00080BD80B586B000AF786039600023FB7577
:102F0000FFF7A0FC0346002B02D00023FB7547E02F
:102F10003B681B88012B41D907F10C031846FFF7CA
:102F200055FCFB6801331B789BB21B02BB82FB681C
:102F300002331B789AB2BB8A1343BB82BB8A01332C
:102F4000BB82FB6803331B789BB21B027B82FB684E
:102F500004331B789AB27B8A13437B827B8A002BD3
:102F600019D07B8A5B007A6801321278934212D1C1
:102F70007B6802337A8AB98A1846FEF7A5FA0346B7
:102F80007B747B7C002B0BD07B7C184601F03CFAD9
:102F90000346FB7504E00323FB7501E00323FB7587
:102FA000FB7D18461837BD4680BD000080B582B055
:102FB00000AF03460A46FB711346BB71FB79012B38
:102FC0000BD110211548FDF700FF154B1B6801229E
:102FD00014491846FEF738F80AE010210F48FDF7AB
:102FE000E5FE0F4B1B6800220E491846FEF72CF831
:102FF000BB79012B07D10A4B1B6801220A491846ED
:10300000FEF722F806E0064B1B6800220649184628
:10301000FEF71AF800BF0837BD4680BD0014014016
:10302000EC00002005000C0007000C0080B483B009
:1030300000AF396011461A460346FB710B46BB715F
:1030400013467B71012318460C37BD465DF8047B9F
:103050007047000080B582B000AF0346FB71064B9D
:103060001B68FA7992B211461846FEF721F801233F
:1030700018460837BD4680BDEC00002080B582B000
:1030800000AF7860064B1B681846FEF722F803462F
:10309000DAB27B681A70012318460837BD4680BD36
:1030A000EC00002080B500AF024B1B68984700BFC2
:1030B00080BD00BF7002002080B500AF024B1B68CE
:1030C000984700BF80BD00BF6C02002080B500AFF4
:1030D000134B1B68DB68C3F34013DBB2012B0AD12F
:1030E0000F4B1B6820211846FEF743F80346012BBF
:1030F00001D1FFF7E1FF0A4B1B68DB68C3F3C01384
:10310000DBB2012B0AD1064B1B6840211846FEF7A3
:1031100030F80346012B01D1FFF7C4FF00BF80BD8B
:10312000EC00002080B483B000AF0346FB80054A6A
:10313000FB881380012318460C37BD465DF8047BDD
:10314000704700BF9604002080B500AF0020FFF755
:1031500069FB0F4B00221A800E4B1B680121184699
:10316000FDF75FFD0B4B1B68012201211846FDF79F
:103170001EFD084B1B6800211846FDF7CBFC054BD4
:103180001B6801211846FDF76FFC00BF80BD00BF22
:1031900098040020F000002080B500AF0220FFF767
:1031A00041FB00BF80BD80B500AF0120FFF73AFBB7
:1031B00000BF80BD80B500AF0D4B1B6801211846D4
:1031C000FDF72FFD0A4B1B68002201211846FDF771
:1031D000EEFC074B1B6800211846FDF79BFC044BD7
:1031E0001B6800211846FDF73FFC00BF80BD00BFF3
:1031F000F000002080B500AF024B1B68984700BF6D
:1032000080BD00BF7402002080B500AFFFF7F2FF61
:1032100000BF80BD80B400AF044B00221A700123B0
:103220001846BD465DF8047B704700BF9C04002033
:1032300080B483B000AF0346FB80064B01221A70B6
:10324000054AFB881380012318460C37BD465DF8FC
:10325000047B70479C0400209A04002080B485B051
:1032600000AF78600023FB73094B1B78002B08D05C
:10327000084B1A887B681A80054B00221A700123BC
:10328000FB73FB7B18461437BD465DF8047B704723
:103290009C0400209A04002080B400AF00BFBD460B
:1032A0005DF8047B704780B483B000AF7860012381
:1032B00018460C37BD465DF8047B704780B400AFFC
:1032C00000BFBD465DF8047B704780B582B000AF9B
:1032D00003463960FB711346BB804020FFF7A8FF0F
:1032E00000BF0837BD4680BD80B582B000AF034641
:1032F0003960FB711346BB808020FFF799FF00BF48
:103300000837BD4680BD80B582B000AF0346396046
:10331000FB711346BB804FF48070FFF789FF00BF3D
:103320000837BD4680BD80B500AF2020FFF780FF85
:1033300000BF80BD80B483B000AF0023FB71124B8F
:103340001B88B3F5807F11D0B3F5807F11DC802B13
:1033500009D0802B0DDC202B0DD0402B00D008E0B5
:103360000423FB7108E00323FB7105E00623FB71D6
:1033700002E000BF00E000BFFB7918460C37BD46F5
:103380005DF8047B704700BF9A04002080B584B0CC
:1033900000AF3B600346FB710B46BB7113467B716C
:1033A0000023FB73BB79002B05D0BB79002B02D027
:1033B000BB79F72B02D90223FB733AE01F4ABB7992
:1033C0001370FB79002B21D11D4B1E4A1A601E4B36
:1033D0001E4A1A601E4B1F4A1A601F4B1F4A1A6072
:1033E0001F4B00221A601F4B1F4A1A601F4B204AB6
:1033F0001A60204B204A1A60104B18783B7E79796E
:103400003A6800F021F90346FB7301E00223FB73E5
:10341000FB7B002B0DD101F019F90346002B02D1E3
:103420000323FB7305E0154AFB791370144B01224B
:103430001A70FB7B18461037BD4680BD9D040020E6
:10344000A4040020C1360008A8040020E9360008C2
:10345000A0040020A1370008AC04002005370008B4
:10346000B0040020B404002069380008B80400202B
:1034700039390008BC040020E93900089E04002006
:10348000F400002080B582B000AF0023FB71094B2F
:103490001B78012B06D1084B1B689847054B00226F
:1034A0001A7001E00623FB71FB7918460837BD4608
:1034B00080BD00BFF4000020A404002090B583B0BC
:1034C00000AF0023FB70564B1B78002B01D0062366
:1034D000A1E0BB1C184601F0DDF80346012B40F0CB
:1034E0009480BB78013B072B00F2948001A252F834
:1034F00023F000BF15360008153500081536000802
:10350000473500081536000815360008153600083E
:1035100015360008434B1B68434A444944489847C2
:103520000346FB70FB78002B71D1414B1A78414B5D
:103530001B789A4203D03E4B1B78002B67D10420A6
:1035400001F092F863E0394B1B681A783A4B1A7015
:103550003A4B01221A7000237B601FE0384A7B68D7
:1035600012F83330002B1DD0354A7B6812F8332017
:10357000314B1B789A420ED1314A7B68DB001344F1
:103580005B682A4A126828491046984703461A463B
:103590002A4B1A7007E07B6801337B607B680F2B36
:1035A000DCDD00E000BF224B1B78002B31D0234B29
:1035B0001B78002B1DD01C4B00221A801E4B1A7842
:1035C0001A4B1968184B1B88581C84B21648048083
:1035D0000B4462F07F02D2B21A70144B1A68124B7D
:1035E0001B88591C88B2104908801344134A12786A
:1035F0001A70144B1B680F4A10780C4A11680A4A5B
:10360000128898470346FB7003E000BF02E000BF4A
:1036100000E000BF002318460C37BD4690BD00BF38
:10362000F4000020AC040020C8040020C4040020E2
:10363000C00400209D040020CA040020CB04002008
:10364000F8000020A004002080B584B000AF3A60EC
:103650001A460346FB710B46BB7113467B71002370
:10366000FB7372B600BF7B79B8790822396800F025
:1036700023FF0346012B02D00323FB7316E03B68B4
:10368000B3F5964F02D92323BB6005E03B685B008E
:103690000A4AB2FBF3F3BB60BB689BB2184600F06A
:1036A00087FF0346012B01D00323FB7362B600BFE3
:1036B000FB7B18461037BD4680BD00BFA07F1700BA
:1036C00080B500AF72B600BF064B00221A70002111
:1036D000012000F0BBFE00F077FF62B600BF00BF24
:1036E00080BD00BFCD04002080B500AF72B600BF22
:1036F0000021002000F0AAFE00F07FFF62B600BFAC
:1037000000BF80BD80B586B000AFF860B9607A6058
:103710000023BB750023FB7572B600BF1A4B1B88D4
:103720009BB2FF2B05D9194B194A9D21194801F06D
:1037300037F9154B1B889BB2032B1BD9124B1B88E7
:103740009BB21946144800F095F90346002B11D19D
:10375000114B1B78DAB2FB681A700B4B1B889BB2BB
:10376000033B9AB27B681A80BB680C4A1A6001233B
:10377000BB7501E00523FB7562B600BFFB7D1846F3
:103780001837BD4680BD00BFD6050020345F000855
:10379000446100085C5F0008D0040020D1040020D0
:1037A00080B584B000AF03463960FB711346BB801F
:1037B0000023FB7372B600BF264B1B78DBB2012BD4
:1037C0003FD13B68013B244A1360244B01221A80FD
:1037D000214B1B68FA791A70204B1B889AB2BB8860
:1037E00013449AB21D4B1A801B4B1B681B4A12884C
:1037F00092B21146184600F03DF90346BB81174BC3
:103800001B889BB25A1C91B2144A11801A46BB897C
:10381000D9B2134B9954BB891B0A99B20F4B1B8821
:103820009BB25A1C90B20D4A10801A46C9B20C4B7A
:1038300099540C4B01221A700121002000F006FE61
:1038400001E00523FB7362B600BFFB7B184610370F
:10385000BD4680BDCD040020D0050020D405002049
:10386000D0040020CC04002080B582B000AF00233B
:10387000FB712A4B1B78DBB2002B05D0284B294A61
:10388000E721294801F08CF8BB1D184600F03CFEEA
:10389000264B1B78DBB2032B3BD801A252F823F056
:1038A000B1380008BD380008E5380008B73800080E
:1038B00000F08AFE2DE000F087FE2AE01C4B00227B
:1038C0001A801B4B1B889BB25A1C91B2184A11805C
:1038D0001A46B979174B9954144B02221A7000F00A
:1038E00073FE16E0124B1B889BB2FF2B0BD8104BBC
:1038F0001B889BB25A1C91B20D4A11801A46B979A5
:103900000C4B995402E0094B03221A7000F05CFE44
:1039100000BFFB7918460837BD4680BDCC040020A7
:10392000A85F0008546100085C5F0008CD04002017
:10393000D6050020D004002080B582B000AF00235F
:10394000FB71224B1B78DBB2012B06D0204B214AA6
:103950004FF49171204801F023F8204B1B78DBB223
:10396000002B02D0012B05D02AE00021012000F01D
:103970006DFD25E01A4B1B889BB2002B13D0194B11
:103980001B681B78DBB2184600F0AAFD154B1B68BC
:103990000133144A1360124B1B889BB2013B9AB24D
:1039A0000F4B1A800BE0082000F05EFE0346FB710F
:1039B0000021012000F04AFD084B00221A7000BFD0
:1039C000FB7918460837BD4680BD00BFCD040020F6
:1039D000C45F0008686100085C5F0008CC04002038
:1039E000D4050020D005002080B582B000AF0023B0
:1039F000FB711C4B1B78DBB2032B28D0032B10DC94
:103A0000002B02D0022B06D00BE0012000F02CFE90
:103A10000346FB711CE0022000F026FE0346FB710A
:103A200016E0104B1B78DBB2002B11D00D4B1B782E
:103A3000DBB2022B0CD00B4B1B78DBB2032B07D075
:103A4000094B0A4A40F25B11094800F0A9FF00BF88
:103A500000F0D3FD034B01221A70FB79184608379A
:103A6000BD4680BDCD040020E05F00087C610008F9
:103A70005C5F000880B485B000AF78600B467B8047
:103A8000FF23FB73FF23BB7313E07B685A1C7A6030
:103A90001A78BB7B5340DBB2BB600F4ABB68134450
:103AA0001A78FB7B5340BB730C4ABB6813441B78EA
:103AB000FB737B885A1E7A80002BE6D1FB7B1B02AE
:103AC0001AB2BB7B1BB213431BB29BB2184614370E
:103AD000BD465DF8047B704794610008946200085D
:103AE00080B586B000AF786039600023BB753B6855
:103AF0001B88052B6CD17B6801331B789BB21B02A2
:103B0000BB827B6802331B789AB2BB8A1343BB82A9
:103B1000BB8A0133BB827B6803331B789BB21B02D9
:103B20007B827B6804331B789AB27B8A13437B8247
:103B30007B8A002B49D07B8AB3F5FA6F45D27B682C
:103B4000FB603B6800221A80FB685A1CFA60012265
:103B50001A703B681B8801339AB23B681A807B8AD3
:103B600003F00703002B06D07B8ADB089BB2DBB295
:103B70000133FB7503E07B8ADB089BB2FB75FB68B6
:103B80005A1CFA60FA7D1A703B681B8801339AB29E
:103B90003B681A807A8AB98A0023F86800F058FED8
:103BA0000346FB72FB7A002B06D0FB7A184600F026
:103BB0002BFC0346BB750DE03B681A88FB7D9BB26E
:103BC00013449AB23B681A8004E00323BB7501E0FA
:103BD0000323BB75BB7D18461837BD4680BD80B535
:103BE00084B000AF786039600023FB733B681B88AA
:103BF000052B40D17B6801331B789BB21B02BB8134
:103C00007B6802331B789AB2BB891343BB81BB89A3
:103C10000133BB817B6804331B78002B28D17B6880
:103C200003331B78FF2B04D07B6803331B78002BF6
:103C30001ED100237B727B6803331B78FF2B02D1DC
:103C400001233B7201E000233B72B98907F10800B0
:103C50000123012200F0FCFD0346FB72FB7A002BDE
:103C60000BD0FB7A184600F0CFFB0346FB7304E051
:103C70000323FB7301E00323FB73FB7B1846103720
:103C8000BD4680BD80B584B000AF78603960002348
:103C9000BB733B681B88052B54D97B6801331B78A9
:103CA0009BB21B02BB817B6802331B789AB2BB8933
:103CB0001343BB81BB890133BB817B6803331B7812
:103CC0009BB21B027B817B6804331B789AB27B8991
:103CD00013437B817B685B797B727B8903F00703ED
:103CE000002B06D07B89DB089BB2DBB20133FB7370
:103CF00003E07B89DB089BB2FB737B89002B1ED022
:103D00007B89B3F5F66F1AD8FA7B7B7A9A4216D183
:103D10007B68981D7A89B989012300F099FD0346D3
:103D20003B723B7A002B06D03B7A184600F06CFBC6
:103D30000346BB7308E03B6805221A8004E00323B6
:103D4000BB7301E00323BB73BB7B18461037BD4632
:103D500080BD80B586B000AF786039600023BB7548
:103D60003B681B88052B6CD17B6801331B789BB2A9
:103D70001B02BB827B6802331B789AB2BB8A134357
:103D8000BB82BB8A0133BB827B6803331B789BB247
:103D90001B027B827B6804331B789AB27B8A1343B5
:103DA0007B827B8A002B49D07B8AB3F5FA6F45D2A0
:103DB0007B68FB603B6800221A80FB685A1CFA6033
:103DC00002221A703B681B8801339AB23B681A8042
:103DD0007B8A03F00703002B06D07B8ADB089BB2AB
:103DE000DBB20133FB7503E07B8ADB089BB2FB751A
:103DF000FB685A1CFA60FA7D1A703B681B88013315
:103E00009AB23B681A807A8ABB8A1946F86800F031
:103E100087FD0346FB72FB7A002B06D0FB7A18461F
:103E200000F0F2FA0346BB750DE03B681A88FB7D93
:103E30009BB213449AB23B681A8004E00323BB751B
:103E400001E00323BB75BB7D18461837BD4680BD16
:103E500080B584B000AF786039600023FB733B68A5
:103E60001B88052B22D17B6801331B789BB21B0278
:103E7000BB817B6802331B789AB2BB891343BB8139
:103E8000BB890133BB817B68D81CB989012301221E
:103E900000F062FC0346FB72FB7A002B08D0FB7A31
:103EA000184600F0B1FA0346FB7301E00323FB73ED
:103EB000FB7B18461037BD4680BD80B584B000AF8F
:103EC000786039600023FB733B681B88052B46D95B
:103ED0007B6801331B789BB21B02BB817B6802337A
:103EE0001B789AB2BB891343BB81BB890133BB8169
:103EF0007B6803331B789BB21B027B817B68043396
:103F00001B789AB27B8913437B817B685B797B72D8
:103F10007B89002B20D07B89782B1DD87B89DBB255
:103F20005B00DBB27A7A9A4216D17B68981D7A8957
:103F3000B989012300F010FC03463B723B7A002B49
:103F400006D03B7A184600F05FFA0346FB7308E0A0
:103F50003B6805221A8004E00323FB7301E003237E
:103F6000FB73FB7B18461037BD4680BD80B586B01D
:103F700000AF786039600023FB753B681B88052B18
:103F80005CD17B6801331B789BB21B02BB827B68D0
:103F900002331B789AB2BB8A1343BB82BB8A0133BC
:103FA000BB827B6803331B789BB21B027B827B68DE
:103FB00004331B787B827B8A002B3CD07B8A7D2B51
:103FC00039D87B68FB603B6800221A80FB685A1C6A
:103FD000FA6003221A703B681B8801339AB23B686F
:103FE0001A807B8ADAB2FB68591CF9605200D2B29F
:103FF0001A703B681B8801339AB23B681A807A8A30
:10400000B98A0023F86800F0A7FB0346FB72FB7A2D
:10401000002B06D0FB7A184600F0F6F90346FB7534
:104020000EE03B681A887B8A5B009BB213449AB20D
:104030003B681A8004E00323FB7501E00323FB7552
:10404000FB7D18461837BD4680BD80B586B000AFF1
:10405000786039600023FB753B681B88092B40F2B0
:1040600099807B6801331B789BB21B02BB827B6803
:1040700002331B789AB2BB8A1343BB82BB8A0133DB
:10408000BB827B6803331B789BB21B027B827B68FD
:1040900004331B789AB27B8A13437B827B68053397
:1040A0001B789BB21B023B827B6806331B789AB25B
:1040B0003B8A13433B823B8A01333B827B68073355
:1040C0001B789BB21B02FB817B6808331B789AB27A
:1040D000FB891343FB817B685B7A7B737B8A002BB4
:1040E00056D07B8A7D2B53D8FB89002B50D0FB897F
:1040F000792B4DD8FB895A007B7B9A4248D17B684B
:1041000003F10A00FA89398A012300F025FB0346EE
:10411000BB75BB7D002B31D17B68BB603B68002247
:104120001A80BB685A1CBA6017221A703B681B8839
:1041300001339AB23B681A807B8ADAB2BB68591C99
:10414000B9605200D2B21A703B681B8801339AB230
:104150003B681A807A8AB98A0023B86800F0FCFAB2
:104160000346BB75BB7D002B08D13B681A887B8A50
:104170005B009BB213449AB23B681A80BB7D002B54
:1041800008D0BB7D184600F03FF90346FB7501E0FF
:104190000323FB75FB7D18461837BD4680BD80B5EF
:1041A00086B000AF786039600023FB753B681B88E0
:1041B000052B5FD17B6801331B789BB21B02BB824E
:1041C0007B6802331B789AB2BB8A1343BB82BB8ADB
:1041D0000133BB827B6803331B789BB21B027B825B
:1041E0007B6804331B789AB27B8A13437B827B8A79
:1041F000002B3CD07B8A7C2B39D87B68FB603B68EA
:1042000000221A80FB685A1CFA6004221A703B686C
:104210001B8801339AB23B681A807B8ADAB2FB684A
:10422000591CF9605200D2B21A703B681B880133E6
:104230009AB23B681A807A8ABB8A1946F86800F0FD
:1042400047FA0346FB72FB7A002B06D0FB7A18462E
:1042500000F0DAF80346FB750EE03B681A887B8AAB
:104260005B009BB213449AB23B681A8004E00323BC
:10427000FB7501E00323FB75FB7D18461837BD462F
:1042800080BD000080B582B000AF786039607B6887
:104290000133084A12880849184600F0B7FB054B5D
:1042A0001B8801339AB23B681A80002318460837EE
:1042B000BD4680BDF8050020D805002080B586B039
:1042C00000AF7860084611461A4603467B800B46CD
:1042D0007B7013463B703B78FB827B78082B05D9BB
:1042E000294B2A4A37212A4800F05AFB7B88DB08F1
:1042F000BB82BB8ADB009BB27A88D31A7B82FA8AA4
:104300007B8A02FA03F3FB827B78012202FA03F331
:104310009BB2013B3B823A8A7988BB8ADB00CB1A8D
:1043200002FA03F33B82BB8A7A6813441B78FB8151
:10433000BB8A01337A6813441B781B021AB2B7F99F
:104340000E3013431BB2FB81B7F91030DB431AB2B6
:10435000B7F90E3013401AB2B7F9163013431BB237
:10436000FB81BB8A7A681344FA89D2B21A70FB893E
:104370001B0A99B2BB8A01337A681344CAB21A7015
:1043800000BF1837BD4680BD446000089463000834
:104390005460000880B485B000AF78600B467B8025
:1043A00013467B707B88DB08FB81FB89DB009BB2BB
:1043B0007A88D31ABB817B78012202FA03F39BB27D
:1043C000013B7B81FB897A6813441B783B81FB8925
:1043D00001337A6813441B781B021AB2B7F908300C
:1043E00013431BB23B813A89BB8942FA03F33B81F9
:1043F0003A897B8913403B813B89DBB218461437ED
:10440000BD465DF8047B704780B485B000AF0346BD
:10441000FB71FB79072B0CD0072B0DDC002B02D096
:10442000012B03D008E00023FB7308E00223FB7399
:1044300005E00623FB7302E00423FB7300BFFB7B54
:1044400018461437BD465DF8047B704780B582B0CE
:1044500000AF03460A46FB711346BB71FB79012B83
:1044600007D1124B1B68012211491846FCF7ECFDDD
:1044700006E00E4B1B6800220D491846FCF7E4FDD0
:10448000BB79012B07D1094B1B680122094918464A
:10449000FCF7DAFD06E0054B1B68002205491846CB
:1044A000FCF7D2FD00BF0837BD4680BD7801002073
:1044B00005000C0007000C0080B483B000AF396029
:1044C00011461A460346FB710B46BB7113467B71BE
:1044D000012318460C37BD465DF8047B7047000089
:1044E00080B582B000AF0346FB71064B1B68FA79BA
:1044F00092B211461846FCF7DBFD01231846083737
:10450000BD4680BD7801002080B582B000AF7860E4
:10451000064B1B681846FCF7DCFD0346DAB27B68E5
:104520001A70012318460837BD4680BD7801002067
:1045300080B500AF024B1B68984700BF80BD00BF2D
:10454000B804002080B500AF024B1B68984700BF3D
:1045500080BD00BFB404002080B500AF134B1B68C2
:10456000DB68C3F34013DBB2012B0AD10F4B1B688E
:1045700020211846FCF7FDFD0346012B01D1FFF772
:10458000E1FF0A4B1B68DB68C3F3C013DBB2012BEE
:104590000AD1064B1B6840211846FCF7EAFD03468A
:1045A000012B01D1FFF7C4FF00BF80BD78010020BF
:1045B00080B483B000AF0346FB80012318460C375C
:1045C000BD465DF8047B704780B500AF01214FF018
:1045D0008040FCF726FB012201214FF08040FCF7D0
:1045E000E6FA00214FF08040FCF794FA01214FF0E9
:1045F0008040FCF739FA00BF80BD80B500AF0121D3
:104600004FF08040FCF70DFB002201214FF080406D
:10461000FCF7CDFA00214FF08040FCF77BFA002137
:104620004FF08040FCF720FA00BF80BD80B500AF9E
:10463000024B1B68984700BF80BD00BFBC04002030
:1046400080B500AFFFF7F2FF00BF80BD80B400AFC0
:10465000044B00221A7001231846BD465DF8047B06
:10466000704700BFFB05002080B483B000AF034655
:10467000FB71064B01221A70054AFB791370012366
:1046800018460C37BD465DF8047B7047FB050020DB
:10469000FA05002080B485B000AF78600023FB737A
:1046A000094B1B78002B08D0084B1A787B681A70CE
:1046B000054B00221A700123FB73FB7B184614374D
:1046C000BD465DF8047B7047FB050020FA0500201D
:1046D00080B485B000AF78600B467B8013463B808A
:1046E0000023FB737B88002B28D07A883B881344F7
:1046F000112B23DC7B88164A12889B1ABB6019E0B9
:10470000144ABB6832F813301B0A99B27B685A1CF2
:104710007A60CAB21A700F4ABB6832F813107B680D
:104720005A1C7A60CAB21A70BB680133BB603B88FE
:10473000013B3B803B88002BE2D101E00123FB736E
:10474000FB7B18461437BD465DF8047B704700BFFD
:104750007C0100209C01002080B487B000AFF8608D
:10476000084611461A4603467B810B463B81134699
:10477000FB710023FB757B89002B5CD07A893B8918
:104780001344412B57DC7B892F4A12889B1A3B61CB
:10479000FB79002B1CD0012B48D04EE02B4A3B6903
:1047A00032F813301B0A99B2FB685A1CFA60CAB27D
:1047B0001A70264A3B6932F81310FB685A1CFA60DB
:1047C000CAB21A703B6901333B613B89013B3B81B3
:1047D0003B89002BE2D12DE0FB685A1CFA601B7864
:1047E0009BB21B0299B2194A3B6922F81310FB686D
:1047F0005A1CFA601978154A3B6932F813208BB2BB
:10480000134399B2114A3B6922F813100F4A3B69CE
:1048100032F81330DBB299B20C4A3B6922F813101C
:104820003B6901333B613B89013B3B813B89002B69
:10483000D2D102E001E00123FB75FB7D18461C3755
:10484000BD465DF8047B70477E010020BC0100205E
:1048500090B587B000AFF860084611461A46034687
:104860007B810B463B811346FB710023FB753B8923
:10487000BB82B7F90A30002B48DD7A893B891344A3
:10488000412B43DC7B89013B9BB27B82FB79002B74
:104890001CD0012B34D03BE0798AB7F91430082BB7
:1048A00002DCBB8ADBB200E00823FC68621CFA6011
:1048B0001A461A48FFF76EFD03462370BB8A083B71
:1048C0009BB2BB827B8A08339BB27B82B7F91430E0
:1048D000002BE1DC19E0788AB7F91430082B02DCF0
:1048E000BB8ADAB200E00822FB68591CF9601B7829
:1048F00001460A48FFF7E2FCBB8A083B9BB2BB8239
:10490000B7F91430002BE6DC00BF01E00123FB7592
:10491000FB7D18461C37BD4690BD00BF3C02002001
:1049200090B585B000AF78600B467B8013463B8026
:104930000023FB733B88BB81B7F90230002B26DDD7
:104940007A883B881344412B21DC7B88013B7B81A7
:1049500018E0B7F90C30082B02DCBB89DBB200E0B1
:1049600008237C68621C7A6079891A460B48FFF735
:1049700011FD03462370BB89083B9BB2BB817B8939
:1049800008337B81B7F90C30002BE2DC01E0012316
:10499000FB73FB7B18461437BD4690BD44020020D4
:1049A0001FB514461A46094B1B680546D8684CB11A
:1049B000074B0091CDE9013406492B4600F014F86D
:1049C00000F034FD044B1C46F3E700BF000000205C
:1049D000A3630008B0630008DE630008014B186899
:1049E000704700BF000000200EB403B5014603ABC2
:1049F000054853F8042B0068019300F03FF802B01B
:104A00005DF804EB03B07047000000200A449142B7
:104A100000F1FF3300D1704710B511F8014B03F8D6
:104A2000014F9142F9D110BD9368013B002B10B4A6
:104A3000936008DA9469A34201DB0A2903D15DF887
:104A4000044B00F033BC1368581C10601970084602
:104A50005DF8044B7047F8B506460F461446D51866
:104A6000AC4201D1002007E014F8011B3A46304661
:104A7000FFF7DAFF431CF3D1F8BD00002DE9F04F3A
:104A80000D469DB014469846064618B183690BB989
:104A900000F0EEFD894B9D421BD175686B6ED90706
:104AA00005D4AB899A0502D4A86D00F07FFEAB89CE
:104AB0001B0701D52B69EBB92946304600F048FCAD
:104AC000C0B16B6EDC070ED54FF0FF301DB0BDE8F6
:104AD000F08F7B4B9D4201D1B568DFE7794B9D425A
:104AE00008BFF568DAE7AB899805EDD4A86D00F04A
:104AF0005EFEE9E70023099320238DF82930CDF8E5
:104B00000C803023DFF8C0818DF82A304FF0010986
:104B100023469A4613F8012B0AB1252AF9D1BAEB9C
:104B2000040B0BD05B46224629463046FFF793FF25
:104B3000013000F0AA80099A5A4409929AF800308C
:104B4000002B00F0A28000234FF0FF32CDE90523B7
:104B50000AF1010A049307938DF853301A935446CF
:104B6000052214F8011B5848FBF732FB049AD8B908
:104B7000D10644BF20238DF85330130744BF2B23A5
:104B80008DF853309AF800302A2B15D0079A5446E6
:104B900000204FF00A0C214611F8013B303B092B55
:104BA0004ED9B0B1079214E0A0EB080309FA03F361
:104BB00013430493A246D2E7039B191D1B6803917C
:104BC000002BBBBF5B4242F0020207930793B8BFC2
:104BD000049223782E2B0CD163782A2B35D1039B9A
:104BE0001A1D1B680392002BB8BF4FF0FF3302342D
:104BF0000593DFF8E4A0217803225046FBF7E8FA9A
:104C000040B14023A0EB0A0003FA00F0049B0343E9
:104C10000134049314F8011B2C488DF82810062247
:104C2000FBF7D6FA00283FD0294B1BBB039B073369
:104C300023F0070308330393099B3B44099367E779
:104C40000CFB02320C460120A5E70023013405933A
:104C500019464FF00A0C204610F8012B303A092A69
:104C600003D9002BC5D00591C3E70CFB01210446F5
:104C70000123F0E703AB00932A46164B04A9304604
:104C8000AFF300800746781CD6D16B6ED90705D4E8
:104C9000AB899A0502D4A86D00F089FDAB895B064B
:104CA0003FF512AF099811E703AB00932A46094B71
:104CB00004A9304600F080F8E4E700BF346400083F
:104CC0005464000814640008DF630008E963000806
:104CD00000000000574A0008E56300082DE9F0478E
:104CE000164699468A680B69DDF820809342B8BF62
:104CF0001346336091F8432007460C460AB101334E
:104D000033602368990642BF3368023333602568F5
:104D100015F0060506D104F1190AE36832689B1AFA
:104D2000AB4226DC94F84320131E226818BF0123EF
:104D300092062BD404F1430249463846C04701305D
:104D40001ED02368E568326803F00603042B08BF11
:104D5000AD1AA36822690CBF25EAE57500259342C8
:104D6000C4BF9B1AED1800261A34B5421AD1002090
:104D700008E00123524649463846C047013003D176
:104D80004FF0FF30BDE8F0870135C6E7E1185A1C47
:104D9000302081F84300224494F8451082F84310F3
:104DA0000233C7E70123224649463846C04701304F
:104DB000E6D00136D9E700002DE9FF470F7E0C9DB4
:104DC000782F914680460C469A4601F1430207D857
:104DD000622F0AD8002F00F0D880582F00F0A3804F
:104DE00004F1420584F842703AE0A7F16303152B01
:104DF000F6D801A151F823F0514E0008654E000885
:104E0000E14D0008E14D0008E14D0008E14D0008CA
:104E1000654E0008E14D0008E14D0008E14D000835
:104E2000E14D0008714F0008954E0008534F0008EF
:104E3000E14D0008E14D0008934F0008E14D0008E6
:104E4000954E0008E14D0008E14D00085B4F000859
:104E50002B681A1D1B682A6004F1420584F8423051
:104E60000123A3E020682968060601F104030AD59E
:104E70000E682B60002E03DA2D23764284F843302F
:104E80005E480A2319E00E682B6010F0400F18BF2F
:104E900036B2EFE72B682068191D2960010601D59D
:104EA0001E6802E04606FBD51E8854486F2F0CBFD3
:104EB00008230A23002184F843106568A560002DAB
:104EC000A2BF216821F0040121600EB9002D4DD050
:104ED0001546B6FBF3F103FB1167C75D05F8017DCD
:104EE0003746BB420E46F4D9082B0BD12368DE07A8
:104EF00008D5236961689942DEBF302305F8013C7B
:104F000005F1FF35521B2261CDF800A04B4603AAE4
:104F100021464046FFF7E2FE01304CD14FF0FF3012
:104F200004B0BDE8F087354881F8457029682368EA
:104F300051F8046B29601D0614D5DF0744BF43F008
:104F4000200323601EB9236823F02003236010236D
:104F5000B0E7236843F0200323607823284884F8CF
:104F60004530E3E7590648BFB6B2E6E71546BBE76A
:104F70002B6826686169181D286035061B6801D5F5
:104F8000196002E07006FBD51980002323611546E5
:104F9000BAE72B681A1D2A601D686268002128463E
:104FA000FBF716F908B1401B6060636823610023BA
:104FB00084F84330A8E723692A4649464046D0474B
:104FC0000130ABD023689B0713D4E068039B984261
:104FD000B8BF1846A4E70123324649464046D047A9
:104FE00001309BD00135E36803995B1AAB42F2DCD8
:104FF000EBE7002504F11906F5E700BFF0630008B0
:10500000016400080FB40A4B13B51C6824B1A369EE
:1050100013B9204600F02CFB05AB049AA16801935C
:105020002046FFF72BFD02B0BDE8104004B07047EA
:105030000000002070B50E46054618B183690BB913
:1050400000F016FBAB69AC6813B9284600F010FB02
:105050002C4B9C4220D16C68636EDB0705D4A3897E
:10506000980502D4A06D00F0A1FBA38919071DD5F6
:105070002369DBB1013EA36816F8011F013BA36061
:1050800039BB002B38DA22460A21284600F00EF9F7
:10509000013011D00A2511E01B4B9C4201D1AC68B4
:1050A000DAE71A4B9C4208BFEC68D5E72146284650
:1050B00000F04EF90028DDD04FF0FF35636EDA07BF
:1050C00005D4A3899B0502D4A06D00F070FB28468F
:1050D00070BD002B04DAA2699A4206DC0A2904D0CA
:1050E00023685A1C22601970C5E72246284600F042
:1050F000DDF80130BFD1DFE723680A255A1C2260A2
:105100001D70DBE734640008546400081464000870
:10511000024B01461868FFF78DBF00BF000000205A
:105120002DE9F7431D465D4B1F6804460E46904629
:1051300027B1BB6913B9384600F09AFA584B9C4224
:1051400067D17C68B8F1020F06D0B8F1010F00F208
:105150009F80002DC0F29C80636EDB0705D4A3897D
:10516000980502D4A06D00F021FB2146384600F0DE
:10517000EBF9616B41B104F14403994202D0384626
:1051800000F084FB002363630023A3616360A389B1
:10519000190603D52169384600F078FBA38923F46A
:1051A0004A6323F00303B8F1020FA3816CD001AB73
:1051B0006A462146384600F0FBFAA3891843A081CD
:1051C000002D30D1009D284600F058FB06460028EF
:1051D00055D1DDF80090A9454AD14FF0FF350022A6
:1051E000A26004F14702226022610122B4F90C306E
:1051F0006261626E43F00203D207A38105D413F407
:10520000007F02D1A06D00F0D2FA284603B0BDE8BD
:10521000F083244B9C4201D1BC6893E7224B9C4213
:1052200008BFFC688EE7002ECDD0BB6913B93846A5
:1052300000F01EFAB8F1010F08BFA389266004BF71
:1052400043F00103A381A28912F00803C4E90465B5
:105250001CD0D30741BF00236D42A360A56158BF96
:10526000A560656E15F0010515D112F4007FC8E741
:10527000484600F003FB06460028AED04D46A38901
:1052800043F08003A381D0E70025A8E7A360E8E707
:105290004FF0FF35B9E70025B7E700BF0000002059
:1052A000346400085464000814640008F8B50E461D
:1052B0001446054618B183690BB900F0D9F9214BA2
:1052C0009C422BD16C68A369A360A3891A072FD5D0
:1052D00023696BB323692068C01A6369F6B28342FD
:1052E000374604DC2146284600F02EF930BBA3687F
:1052F000013BA36023685A1C22601E706369013061
:10530000834204D0A389DB0706D50A2E04D12146A7
:10531000284600F019F988B93846F8BD0A4B9C4276
:1053200001D1AC68CFE7094B9C4208BFEC68CAE7E3
:105330002146284600F00CF80028CBD04FF0FF376C
:10534000EAE700BF346400085464000814640008ED
:10535000324B70B51D6806460C4625B1AB6913B9D2
:10536000284600F085F92E4B9C420FD16C68A3892A
:10537000B4F90C2019072CD4DD0611D409233360AD
:1053800042F04003A3814FF0FF303EE0254B9C42AA
:1053900001D1AC68EBE7244B9C4208BFEC68E6E720
:1053A000580712D5616B41B104F14403994202D010
:1053B000304600F06BFA00236363A38923F02403D3
:1053C000A3810023636023692360A38943F008035A
:1053D000A38123694BB9A38903F42073B3F5007F3C
:1053E00003D02146304600F009FAA089B4F90C2018
:1053F00010F001030AD00023A36063695B42A3613C
:10540000236943B910F08000BAD170BD810758BF3D
:105410006369A360F4E70020F7E700BF0000002005
:1054200034640008546400081464000808B50620B9
:1054300000F044FB0120FCF7ADF800008A892DE95B
:10544000F041054610070C4658D44B68002B05DC8C
:105450000B6C002B02DC0020BDE8F081E66A002E18
:10546000F9D0002312F480522F682B6032D0606D87
:10547000A3895A0705D56368C01A636B0BB1236C07
:10548000C01A00230246E66A216A2846B047431C38
:10549000A38906D129681D292CD82A4ACA40D607D3
:1054A00028D500226260D9042269226004D5421CFA
:1054B00001D12B6803B96065616B2F600029CAD0E8
:1054C00004F14403994202D0284600F0DFF900209D
:1054D0006063C1E7216A01232846B047411CC7D158
:1054E0002B68002BC4D01D2B01D0162B01D12F60AF
:1054F000B1E7A38943F04003A381ADE70F69002F13
:10550000A9D093070E6808BF4B690F6018BF00232E
:10551000A6EB07088B60B8F1000F9CDD216AA66A34
:1055200043463A462846B047002806DCA38943F0A4
:105530004003A3814FF0FF308EE70744A8EB00083B
:10554000E9E700BF0100402038B50B6905460C466D
:1055500013B90025284638BD18B183690BB900F08E
:1055600087F8144B9C421BD16C68B4F90C30002BAB
:10557000EFD0626ED00704D4990502D4A06D00F07C
:1055800015F928462146FFF759FF636EDA070546ED
:10559000E0D4A3899B05DDD4A06D00F008F9D9E71C
:1055A000054B9C4201D1AC68DFE7044B9C4208BF2D
:1055B000EC68DAE7346400085464000814640008F6
:1055C000002310B50446C0E90033C0E9043383600A
:1055D00081814366C2818361194608225C30FAF7F3
:1055E0006BFE054B6362054BA362054BE362054B03
:1055F0002462236310BD00BFF55A0008175B000842
:105600004F5B0008735B0008014900F0AFB800BFB2
:105610004955000870B568224D1E55430E4605F1E8
:10562000740100F09FF9044640B10021C0E9001662
:105630000C30A06005F16802FAF73EFE204670BD0E
:10564000014800F0B3B800BFFD050020014800F09C
:10565000AEB800BFFD050020014800F0A7B800BFAC
:10566000FE050020014800F0A2B800BFFE050020A2
:1056700010B50446FFF7F0FFA3691BB1BDE8104069
:10568000FFF7F0BFC4E912332365134B134A1B68BD
:10569000A262A34204BF0123A361204600F020F8C8
:1056A0006060204600F01CF8A060204600F018F86A
:1056B0000022E06004216068FFF782FFA0680122F9
:1056C0000921FFF77DFFE06802221221FFF778FF32
:1056D0000123A361D2E700BFA860000809560008B3
:1056E000F8B50746FFF7ACFF1E4B1E68B36913B948
:1056F0003046FFF7BDFF4836D6E90134013B03D5FC
:1057000033680BB33668F7E7B4F90C50D5B9164BCC
:10571000E36004F15800656600F047F8FFF796FF74
:10572000C4E90155C4E904552560A561082229464C
:1057300004F15C00FAF7C0FDC4E90D55C4E9125547
:105740002046F8BD6834D9E704213846FFF762FFE8
:10575000044630600028D5D1FFF778FF0C233B606A
:10576000EEE700BFA86000080100FFFF2DE9F84345
:105770000646884600F148040027D4E90195B9F1AE
:10578000010905D52468002CF7D13846BDE8F88317
:10579000AB89012B07D9B5F90E30013303D0294667
:1057A0003046C04707436835E9E7704770477047A0
:1057B00070B50E46B1F90E10002996B014461D467C
:1057C00008DAB6F90C3000222A601A0610D44FF419
:1057D00080630EE06A4600F0F3F90028F1DB019ADD
:1057E00002F47042A2F500535A425A412A60EEE791
:1057F00040230020236016B070BD00008B8973B574
:105800009D0706460C4607D504F147032360236134
:105810000123636102B070BD01AB6A46FFF7C8FFA8
:1058200000990546304600F09DF848B9B4F90C30AF
:105830009A05EFD423F0030343F00203A381E3E7C7
:105840000D4BB362A389206043F08003A381009BCA
:105850006361019B20615BB1B4F90E10304600F02A
:10586000C1F928B1A38923F0030343F00103A38105
:10587000A0890543A581CDE709560008024B0146E2
:10588000186800F06FB800BF0000002037B500298D
:1058900044D051F8043C0190002BA1F10404B8BF9E
:1058A000E41800F0C1F91E4A0198136833B9636027
:1058B000146003B0BDE8304000F0BCB9A34208D981
:1058C000256861198B4201BF19685B68491921601D
:1058D000EDE71A465B680BB1A342FAD91168551877
:1058E000A5420BD1246821445418A3421160E0D191
:1058F0001C685B68536021441160DAE702D90C230D
:105900000360D6E7256861198B4204BF19685B689C
:10591000636004BF491921605460CAE703B030BD19
:105920000006002070B50E4E0C463168054611B9D0
:1059300000F08CF830602146284600F087F8431CC0
:105940000AD0C41C24F00304A04207D0211A284620
:1059500000F07CF8013001D14FF0FF34204670BDDB
:10596000040600202DE9F041CD1C25F00305083583
:105970000C2D38BF0C25002D074601DBA94205D9A7
:105980000C233B6000263046BDE8F0812E4E00F02F
:105990004BF933681C4634BB29463846FFF7C2FF33
:1059A000431C04464DD134682646002E40D123685E
:1059B0003146384604EB030800F048F880453AD1F8
:1059C000216803356D1A25F0030508350C2D38BF05
:1059D0000C2529463846FFF7A5FF01302BD0236858
:1059E0002B4423600EE02268521B1ED40B2A16D9CA
:1059F0006119A342256018BF5960636808BF316010
:105A000062514B60384604F10B0600F013F926F0A2
:105A10000706231DF21AB6D09B1BA350B3E762689A
:105A2000A3420CBF32605A60ECE723466468B2E7D9
:105A300034467668B9E70C233B60384600F0FAF844
:105A4000A1E72560DEE700BF0006002038B5064D5F
:105A50000023044608462B60FBF7F8FD431C02D1E7
:105A60002B6803B1236038BD080600201F2938B514
:105A700004460D4604D9162303604FF0FF3038BDAD
:105A8000426C12B152F821304BB9204600F030F888
:105A90002A4601462046BDE8384000F017B8012BE1
:105AA0000AD0591C03D1162303600120E7E7002424
:105AB00042F82540284698470020E0E7024B01467F
:105AC0001868FFF7D3BF00BF0000002038B5074DAE
:105AD00000230446084611462B60FBF74BFD431C90
